{
  "contractName": "DecentralizedAuction",
  "abi": [
    {
      "inputs": [],
      "stateMutability": "nonpayable",
      "type": "constructor"
    },
    {
      "anonymous": false,
      "inputs": [
        {
          "indexed": false,
          "internalType": "uint256",
          "name": "itemId",
          "type": "uint256"
        },
        {
          "indexed": false,
          "internalType": "string",
          "name": "name",
          "type": "string"
        },
        {
          "indexed": false,
          "internalType": "uint256",
          "name": "minBid",
          "type": "uint256"
        },
        {
          "indexed": false,
          "internalType": "uint256",
          "name": "buyoutPrice",
          "type": "uint256"
        },
        {
          "indexed": false,
          "internalType": "uint256",
          "name": "auctionEndTime",
          "type": "uint256"
        }
      ],
      "name": "AuctionCreated",
      "type": "event"
    },
    {
      "anonymous": false,
      "inputs": [
        {
          "indexed": false,
          "internalType": "uint256",
          "name": "itemId",
          "type": "uint256"
        },
        {
          "indexed": false,
          "internalType": "address",
          "name": "winner",
          "type": "address"
        },
        {
          "indexed": false,
          "internalType": "uint256",
          "name": "amount",
          "type": "uint256"
        }
      ],
      "name": "AuctionEnded",
      "type": "event"
    },
    {
      "anonymous": false,
      "inputs": [
        {
          "indexed": false,
          "internalType": "uint256",
          "name": "itemId",
          "type": "uint256"
        },
        {
          "indexed": false,
          "internalType": "address",
          "name": "bidder",
          "type": "address"
        },
        {
          "indexed": false,
          "internalType": "uint256",
          "name": "amount",
          "type": "uint256"
        }
      ],
      "name": "HighestBidIncreased",
      "type": "event"
    },
    {
      "anonymous": false,
      "inputs": [
        {
          "indexed": false,
          "internalType": "uint256",
          "name": "itemId",
          "type": "uint256"
        },
        {
          "indexed": false,
          "internalType": "address",
          "name": "buyer",
          "type": "address"
        },
        {
          "indexed": false,
          "internalType": "uint256",
          "name": "amount",
          "type": "uint256"
        }
      ],
      "name": "ItemBoughtOut",
      "type": "event"
    },
    {
      "anonymous": false,
      "inputs": [
        {
          "indexed": false,
          "internalType": "address",
          "name": "userAddress",
          "type": "address"
        },
        {
          "indexed": false,
          "internalType": "string",
          "name": "username",
          "type": "string"
        }
      ],
      "name": "UserRegistered",
      "type": "event"
    },
    {
      "inputs": [
        {
          "internalType": "uint256",
          "name": "",
          "type": "uint256"
        }
      ],
      "name": "items",
      "outputs": [
        {
          "internalType": "uint256",
          "name": "id",
          "type": "uint256"
        },
        {
          "internalType": "address payable",
          "name": "seller",
          "type": "address"
        },
        {
          "internalType": "string",
          "name": "name",
          "type": "string"
        },
        {
          "internalType": "string",
          "name": "imageUrl",
          "type": "string"
        },
        {
          "internalType": "uint256",
          "name": "minBid",
          "type": "uint256"
        },
        {
          "internalType": "uint256",
          "name": "buyoutPrice",
          "type": "uint256"
        },
        {
          "internalType": "uint256",
          "name": "auctionEndTime",
          "type": "uint256"
        },
        {
          "internalType": "address",
          "name": "highestBidder",
          "type": "address"
        },
        {
          "internalType": "uint256",
          "name": "highestBid",
          "type": "uint256"
        },
        {
          "internalType": "bool",
          "name": "ended",
          "type": "bool"
        }
      ],
      "stateMutability": "view",
      "type": "function",
      "constant": true
    },
    {
      "inputs": [
        {
          "internalType": "address",
          "name": "",
          "type": "address"
        }
      ],
      "name": "registered",
      "outputs": [
        {
          "internalType": "bool",
          "name": "",
          "type": "bool"
        }
      ],
      "stateMutability": "view",
      "type": "function",
      "constant": true
    },
    {
      "inputs": [
        {
          "internalType": "address",
          "name": "",
          "type": "address"
        }
      ],
      "name": "users",
      "outputs": [
        {
          "internalType": "string",
          "name": "username",
          "type": "string"
        },
        {
          "internalType": "address",
          "name": "walletAddress",
          "type": "address"
        }
      ],
      "stateMutability": "view",
      "type": "function",
      "constant": true
    },
    {
      "inputs": [
        {
          "internalType": "string",
          "name": "_username",
          "type": "string"
        }
      ],
      "name": "registerUser",
      "outputs": [],
      "stateMutability": "nonpayable",
      "type": "function"
    },
    {
      "inputs": [
        {
          "internalType": "address",
          "name": "_userAddress",
          "type": "address"
        }
      ],
      "name": "getUser",
      "outputs": [
        {
          "components": [
            {
              "internalType": "string",
              "name": "username",
              "type": "string"
            },
            {
              "internalType": "address",
              "name": "walletAddress",
              "type": "address"
            }
          ],
          "internalType": "struct DecentralizedAuction.User",
          "name": "",
          "type": "tuple"
        }
      ],
      "stateMutability": "view",
      "type": "function",
      "constant": true
    },
    {
      "inputs": [
        {
          "internalType": "string",
          "name": "name",
          "type": "string"
        },
        {
          "internalType": "string",
          "name": "imageUrl",
          "type": "string"
        },
        {
          "internalType": "uint256",
          "name": "minBid",
          "type": "uint256"
        },
        {
          "internalType": "uint256",
          "name": "buyoutPrice",
          "type": "uint256"
        },
        {
          "internalType": "uint256",
          "name": "biddingTime",
          "type": "uint256"
        }
      ],
      "name": "addItem",
      "outputs": [],
      "stateMutability": "nonpayable",
      "type": "function"
    },
    {
      "inputs": [
        {
          "internalType": "uint256",
          "name": "itemId",
          "type": "uint256"
        }
      ],
      "name": "bid",
      "outputs": [],
      "stateMutability": "payable",
      "type": "function",
      "payable": true
    },
    {
      "inputs": [
        {
          "internalType": "uint256",
          "name": "itemId",
          "type": "uint256"
        }
      ],
      "name": "buyout",
      "outputs": [],
      "stateMutability": "payable",
      "type": "function",
      "payable": true
    },
    {
      "inputs": [
        {
          "internalType": "uint256",
          "name": "itemId",
          "type": "uint256"
        }
      ],
      "name": "manualEndAuction",
      "outputs": [],
      "stateMutability": "nonpayable",
      "type": "function"
    },
    {
      "inputs": [],
      "name": "itemsCount",
      "outputs": [
        {
          "internalType": "uint256",
          "name": "",
          "type": "uint256"
        }
      ],
      "stateMutability": "view",
      "type": "function",
      "constant": true
    },
    {
      "inputs": [],
      "name": "getAllUserItems",
      "outputs": [
        {
          "components": [
            {
              "internalType": "uint256",
              "name": "id",
              "type": "uint256"
            },
            {
              "internalType": "address payable",
              "name": "seller",
              "type": "address"
            },
            {
              "internalType": "string",
              "name": "name",
              "type": "string"
            },
            {
              "internalType": "string",
              "name": "imageUrl",
              "type": "string"
            },
            {
              "internalType": "uint256",
              "name": "minBid",
              "type": "uint256"
            },
            {
              "internalType": "uint256",
              "name": "buyoutPrice",
              "type": "uint256"
            },
            {
              "internalType": "uint256",
              "name": "auctionEndTime",
              "type": "uint256"
            },
            {
              "internalType": "address",
              "name": "highestBidder",
              "type": "address"
            },
            {
              "internalType": "uint256",
              "name": "highestBid",
              "type": "uint256"
            },
            {
              "internalType": "bool",
              "name": "ended",
              "type": "bool"
            }
          ],
          "internalType": "struct DecentralizedAuction.Item[]",
          "name": "",
          "type": "tuple[]"
        }
      ],
      "stateMutability": "view",
      "type": "function",
      "constant": true
    }
  ],
  "bytecode": "0x60806040523480156200001157600080fd5b5060005b600a811015620001ce5760408051610140810182528281526000602080830182815284518083018652838152848601908152855192830190955282825260608401919091526080830182905260a0830182905260c0830182905260e0830182905261010083018290526101208301829052815460018101835591805282517f290decd9548b62a8d60345a988386fc84ba6bc95484008f6362f93160ef3e563600a90930292830190815590517f290decd9548b62a8d60345a988386fc84ba6bc95484008f6362f93160ef3e564830180546001600160a01b0319166001600160a01b0390921691909117905592519192917f290decd9548b62a8d60345a988386fc84ba6bc95484008f6362f93160ef3e565909101906200013790826200027a565b50606082015160038201906200014e90826200027a565b506080820151600482015560a0820151600582015560c0820151600682015560e08201516007820180546001600160a01b0319166001600160a01b039092169190911790556101008201516008820155610120909101516009909101805460ff191691151591909117905580620001c58162000346565b91505062000015565b506200036e565b634e487b7160e01b600052604160045260246000fd5b600181811c908216806200020057607f821691505b6020821081036200022157634e487b7160e01b600052602260045260246000fd5b50919050565b601f8211156200027557600081815260208120601f850160051c81016020861015620002505750805b601f850160051c820191505b8181101562000271578281556001016200025c565b5050505b505050565b81516001600160401b03811115620002965762000296620001d5565b620002ae81620002a78454620001eb565b8462000227565b602080601f831160018114620002e65760008415620002cd5750858301515b600019600386901b1c1916600185901b17855562000271565b600085815260208120601f198616915b828110156200031757888601518255948401946001909101908401620002f6565b5085821015620003365787850151600019600388901b60f8161c191681555b5050505050600190811b01905550565b6000600182016200036757634e487b7160e01b600052601160045260246000fd5b5060010190565b611abc806200037e6000396000f3fe60806040526004361061009c5760003560e01c8063704f1b9411610064578063704f1b9414610141578063a87430ba14610161578063ab18d07a1461018f578063b2dd5c07146101af578063bfb231d2146101ef578063e2c03ace1461022557600080fd5b806307bec66f146100a15780630abe0866146100b65780632920e022146100d6578063454a2ab3146101015780636f77926b14610114575b600080fd5b6100b46100af36600461140f565b610243565b005b3480156100c257600080fd5b506100b46100d13660046114cb565b61046c565b3480156100e257600080fd5b506100eb610650565b6040516100f89190611590565b60405180910390f35b6100b461010f36600461140f565b610a3b565b34801561012057600080fd5b5061013461012f366004611681565b610d31565b6040516100f891906116b1565b34801561014d57600080fd5b506100b461015c3660046116ee565b610e73565b34801561016d57600080fd5b5061018161017c366004611681565b610f83565b6040516100f892919061172b565b34801561019b57600080fd5b506100b46101aa36600461140f565b611030565b3480156101bb57600080fd5b506101df6101ca366004611681565b60026020526000908152604090205460ff1681565b60405190151581526020016100f8565b3480156101fb57600080fd5b5061020f61020a36600461140f565b611112565b6040516100f89a99989796959493929190611755565b34801561023157600080fd5b506000546040519081526020016100f8565b600054811061026d5760405162461bcd60e51b8152600401610264906117d2565b60405180910390fd5b6000808281548110610281576102816117fb565b90600052602060002090600a02019050600082815481106102a4576102a46117fb565b600091825260209091206009600a90920201015460ff16156103015760405162461bcd60e51b815260206004820152601660248201527520bab1ba34b7b71030b63932b0b23c9032b73232b21760511b6044820152606401610264565b8060050154341461034c5760405162461bcd60e51b8152602060048201526015602482015274213abcb7baba10383934b1b2903737ba1036b2ba1760591b6044820152606401610264565b60098101805460ff1916600117905560078101546001600160a01b0316156103e957600781015460088201546040516000926001600160a01b031691908381818185875af1925050503d80600081146103c1576040519150601f19603f3d011682016040523d82523d6000602084013e6103c6565b606091505b50509050806103e75760405162461bcd60e51b815260040161026490611811565b505b60018101546040516001600160a01b03909116903480156108fc02916000818181858888f19350505050158015610424573d6000803e3d6000fd5b506040805183815233602082015234918101919091527f713f19a7f9a1e0c7daa8679ac03a7574d05a0fa17776c383c91aafff17c7f356906060015b60405180910390a15050565b6000610478824261186f565b60408051610140810182526000805480835233602084019081529383018b8152606084018b9052608084018a905260a0840189905260c0840186905260e084018390526101008401839052610120840183905260018201835591805282517f290decd9548b62a8d60345a988386fc84ba6bc95484008f6362f93160ef3e563600a90920291820190815593517f290decd9548b62a8d60345a988386fc84ba6bc95484008f6362f93160ef3e564820180546001600160a01b0319166001600160a01b03909216919091179055905193945090927f290decd9548b62a8d60345a988386fc84ba6bc95484008f6362f93160ef3e5659091019061057a9082611911565b506060820151600382019061058f9082611911565b506080820151600482015560a0820151600582015560c0820151600682015560e08201516007820180546001600160a01b0319166001600160a01b039092169190911790556101008201516008820155610120909101516009909101805460ff19169115159190911790556000547f9f2d79365342a9f9f646a83e6191a18708a54c48f4924e82339e698793aff5fe9061062b906001906119d1565b878686856040516106409594939291906119e4565b60405180910390a1505050505050565b3360009081526002602052604090205460609060ff166106a95760405162461bcd60e51b81526020600482015260146024820152732ab9b2b9103737ba103932b3b4b9ba32b932b21760611b6044820152606401610264565b6000805b60005481101561071657336001600160a01b0316600082815481106106d4576106d46117fb565b600091825260209091206001600a9092020101546001600160a01b031603610704578161070081611a1a565b9250505b8061070e81611a1a565b9150506106ad565b5060008167ffffffffffffffff81111561073257610732611428565b6040519080825280602002602001820160405280156107cd57816020015b6107ba6040518061014001604052806000815260200160006001600160a01b03168152602001606081526020016060815260200160008152602001600081526020016000815260200160006001600160a01b03168152602001600081526020016000151581525090565b8152602001906001900390816107505790505b5090506000805b600054811015610a3257336001600160a01b0316600082815481106107fb576107fb6117fb565b600091825260209091206001600a9092020101546001600160a01b031603610a205760008181548110610830576108306117fb565b90600052602060002090600a020160405180610140016040529081600082015481526020016001820160009054906101000a90046001600160a01b03166001600160a01b03166001600160a01b0316815260200160028201805461089390611888565b80601f01602080910402602001604051908101604052809291908181526020018280546108bf90611888565b801561090c5780601f106108e15761010080835404028352916020019161090c565b820191906000526020600020905b8154815290600101906020018083116108ef57829003601f168201915b5050505050815260200160038201805461092590611888565b80601f016020809104026020016040519081016040528092919081815260200182805461095190611888565b801561099e5780601f106109735761010080835404028352916020019161099e565b820191906000526020600020905b81548152906001019060200180831161098157829003601f168201915b505050918352505060048201546020820152600582015460408201526006820154606082015260078201546001600160a01b03166080820152600882015460a082015260099091015460ff16151560c0909101528351849084908110610a0657610a066117fb565b60200260200101819052508180610a1c90611a1a565b9250505b80610a2a81611a1a565b9150506107d4565b50909392505050565b6000548110610a5c5760405162461bcd60e51b8152600401610264906117d2565b6000808281548110610a7057610a706117fb565b60009182526020909120600a90910201600981015490915060ff1615610aa85760405162461bcd60e51b815260040161026490611a33565b8060060154421115610acc5760405162461bcd60e51b815260040161026490611a33565b6001810154336001600160a01b0390911603610b355760405162461bcd60e51b815260206004820152602260248201527f596f752063616e6e6f7420626964206f6e20796f7572206f776e20617563746960448201526137b760f11b6064820152608401610264565b8060040154341015610ba25760405162461bcd60e51b815260206004820152603060248201527f426964206d7573742062652067726561746572207468616e206f72206571756160448201526f1b081d1bc81b5a5b9a5b5d5b48189a5960821b6064820152608401610264565b80600801543411610bf55760405162461bcd60e51b815260206004820152601d60248201527f546865726520616c7265616479206973206120686967686572206269640000006044820152606401610264565b80600501543410610c485760405162461bcd60e51b815260206004820181905260248201527f4269642063616e6e6f7420626520686967686572207468616e206275796f75746044820152606401610264565b60078101546001600160a01b031615610cd657600781015460088201546040516000926001600160a01b031691908381818185875af1925050503d8060008114610cae576040519150601f19603f3d011682016040523d82523d6000602084013e610cb3565b606091505b5050905080610cd45760405162461bcd60e51b815260040161026490611811565b505b6007810180546001600160a01b0319163390811790915534600883018190556040805185815260208101939093528201527fda0a18da71d8ebd145966339a728fc0d8ccc07c22870d561890d823c515dda6b90606001610460565b6040805180820190915260608152600060208201526001600160a01b03821660009081526002602052604090205460ff16610da55760405162461bcd60e51b81526020600482015260146024820152732ab9b2b9103737ba103932b3b4b9ba32b932b21760611b6044820152606401610264565b6001600160a01b038216600090815260016020526040908190208151808301909252805482908290610dd690611888565b80601f0160208091040260200160405190810160405280929190818152602001828054610e0290611888565b8015610e4f5780601f10610e2457610100808354040283529160200191610e4f565b820191906000526020600020905b815481529060010190602001808311610e3257829003601f168201915b5050509183525050600191909101546001600160a01b031660209091015292915050565b3360009081526002602052604090205460ff1615610ed35760405162461bcd60e51b815260206004820152601860248201527f5573657220616c726561647920726567697374657265642e00000000000000006044820152606401610264565b6040805180820182528281523360208083018290526000918252600190529190912081518190610f039082611911565b50602091820151600191820180546001600160a01b0319166001600160a01b039092169190911790553360008181526002909352604092839020805460ff191690921790915590517f48cac28ad4dc618e15f4c2dd5e97751182f166de97b25618318b2112aa951a2f91610f78918490611a62565b60405180910390a150565b600160205260009081526040902080548190610f9e90611888565b80601f0160208091040260200160405190810160405280929190818152602001828054610fca90611888565b80156110175780601f10610fec57610100808354040283529160200191611017565b820191906000526020600020905b815481529060010190602001808311610ffa57829003601f168201915b505050600190930154919250506001600160a01b031682565b60005481106110515760405162461bcd60e51b8152600401610264906117d2565b6000808281548110611065576110656117fb565b60009182526020909120600a9091020160018101549091506001600160a01b031633146110e05760405162461bcd60e51b8152602060048201526024808201527f4f6e6c79207468652073656c6c65722063616e20656e642074686973206175636044820152633a34b7b760e11b6064820152608401610264565b600981015460ff16156111055760405162461bcd60e51b815260040161026490611a33565b61110e8261129c565b5050565b6000818154811061112257600080fd5b60009182526020909120600a90910201805460018201546002830180549294506001600160a01b03909116929161115890611888565b80601f016020809104026020016040519081016040528092919081815260200182805461118490611888565b80156111d15780601f106111a6576101008083540402835291602001916111d1565b820191906000526020600020905b8154815290600101906020018083116111b457829003601f168201915b5050505050908060030180546111e690611888565b80601f016020809104026020016040519081016040528092919081815260200182805461121290611888565b801561125f5780601f106112345761010080835404028352916020019161125f565b820191906000526020600020905b81548152906001019060200180831161124257829003601f168201915b50505060048401546005850154600686015460078701546008880154600990980154969793969295509093506001600160a01b0316919060ff168a565b60008082815481106112b0576112b06117fb565b60009182526020909120600a90910201600981015490915060ff16156113245760405162461bcd60e51b815260206004820152602360248201527f41756374696f6e20656e642068617320616c7265616479206265656e2063616c6044820152621b195960ea1b6064820152608401610264565b80600601544210156113705760405162461bcd60e51b8152602060048201526015602482015274105d58dd1a5bdb881b9bdd081e595d08195b991959605a1b6044820152606401610264565b60098101805460ff1916600190811790915581015460088201546040516001600160a01b039092169181156108fc0291906000818181858888f193505050501580156113c0573d6000803e3d6000fd5b5060078101546008820154604080518581526001600160a01b0390931660208401528201527fd2aa34a4fdbbc6dff6a3e56f46e0f3ae2a31d7785ff3487aa5c95c642acea50190606001610460565b60006020828403121561142157600080fd5b5035919050565b634e487b7160e01b600052604160045260246000fd5b600082601f83011261144f57600080fd5b813567ffffffffffffffff8082111561146a5761146a611428565b604051601f8301601f19908116603f0116810190828211818310171561149257611492611428565b816040528381528660208588010111156114ab57600080fd5b836020870160208301376000602085830101528094505050505092915050565b600080600080600060a086880312156114e357600080fd5b853567ffffffffffffffff808211156114fb57600080fd5b61150789838a0161143e565b9650602088013591508082111561151d57600080fd5b5061152a8882890161143e565b959895975050505060408401359360608101359360809091013592509050565b6000815180845260005b8181101561157057602081850181015186830182015201611554565b506000602082860101526020601f19601f83011685010191505092915050565b60006020808301818452808551808352604092508286019150828160051b87010184880160005b8381101561167357603f19898403018552815180518452878101516001600160a01b03168885015286810151610140888601819052906115f98287018261154a565b91505060608083015186830382880152611613838261154a565b6080858101519089015260a0808601519089015260c0808601519089015260e0808601516001600160a01b0316908901526101008086015190890152610120948501511515949097019390935250505093860193908601906001016115b7565b509098975050505050505050565b60006020828403121561169357600080fd5b81356001600160a01b03811681146116aa57600080fd5b9392505050565b6020815260008251604060208401526116cd606084018261154a565b602094909401516001600160a01b0316604093909301929092525090919050565b60006020828403121561170057600080fd5b813567ffffffffffffffff81111561171757600080fd5b6117238482850161143e565b949350505050565b60408152600061173e604083018561154a565b905060018060a01b03831660208301529392505050565b8a81526001600160a01b038a81166020830152610140604083018190526000916117818483018d61154a565b91508382036060850152611795828c61154a565b92508960808501528860a08501528760c085015280871660e08501525050836101008301528215156101208301529b9a5050505050505050505050565b6020808252600f908201526e125b9d985b1a5908125d195b481251608a1b604082015260600190565b634e487b7160e01b600052603260045260246000fd5b60208082526028908201527f526566756e6420746f2070726576696f757320686967686573742062696464656040820152671c8819985a5b195960c21b606082015260800190565b634e487b7160e01b600052601160045260246000fd5b8082018082111561188257611882611859565b92915050565b600181811c9082168061189c57607f821691505b6020821081036118bc57634e487b7160e01b600052602260045260246000fd5b50919050565b601f82111561190c57600081815260208120601f850160051c810160208610156118e95750805b601f850160051c820191505b81811015611908578281556001016118f5565b5050505b505050565b815167ffffffffffffffff81111561192b5761192b611428565b61193f816119398454611888565b846118c2565b602080601f831160018114611974576000841561195c5750858301515b600019600386901b1c1916600185901b178555611908565b600085815260208120601f198616915b828110156119a357888601518255948401946001909101908401611984565b50858210156119c15787850151600019600388901b60f8161c191681555b5050505050600190811b01905550565b8181038181111561188257611882611859565b85815260a0602082015260006119fd60a083018761154a565b604083019590955250606081019290925260809091015292915050565b600060018201611a2c57611a2c611859565b5060010190565b602080825260159082015274105d58dd1a5bdb88185b1c9958591e48195b991959605a1b604082015260600190565b6001600160a01b03831681526040602082018190526000906117239083018461154a56fea26469706673582212205fbde91d7e657d5f46de08f02c503c6792f40a300f07102c4e41afcb74c1abb764736f6c63430008150033",
  "immutableReferences": {},
  "source": "// SPDX-License-Identifier: MIT\r\npragma solidity ^0.8.19;\r\n\r\ncontract DecentralizedAuction {\r\n    struct Item {\r\n        uint id;\r\n        address payable seller;\r\n        string name;\r\n        string imageUrl;\r\n        uint minBid;\r\n        uint buyoutPrice;\r\n        uint auctionEndTime;\r\n        address highestBidder;\r\n        uint highestBid;\r\n        bool ended;\r\n    }\r\n\r\n    struct User {\r\n        string username;\r\n        address walletAddress;\r\n    }\r\n\r\n    Item[] public items;\r\n    mapping(address => User) public users;\r\n    mapping(address => bool) public registered;\r\n\r\n    event UserRegistered(address userAddress, string username);\r\n    event AuctionCreated(uint itemId, string name, uint minBid, uint buyoutPrice, uint auctionEndTime);\r\n    event HighestBidIncreased(uint itemId, address bidder, uint amount);\r\n    event AuctionEnded(uint itemId, address winner, uint amount);\r\n    event ItemBoughtOut(uint itemId, address buyer, uint amount);\r\n\r\n    constructor() {\r\n        // Initialize items array with default values\r\n        for (uint i = 0; i < 10; i++) {\r\n            items.push(Item({\r\n                id: i,\r\n                seller: payable(address(0)),\r\n                name: \"\",\r\n                imageUrl: \"\",\r\n                minBid: 0,\r\n                buyoutPrice: 0,\r\n                auctionEndTime: 0,\r\n                highestBidder: address(0),\r\n                highestBid: 0,\r\n                ended: false\r\n            }));\r\n        }\r\n    }\r\n\r\n    function registerUser(string memory _username) public {\r\n        require(!registered[msg.sender], \"User already registered.\");\r\n        users[msg.sender] = User(_username, msg.sender);\r\n        registered[msg.sender] = true;\r\n        emit UserRegistered(msg.sender, _username);\r\n    }\r\n\r\n    function getUser(address _userAddress) public view returns (User memory) {\r\n        require(registered[_userAddress], \"User not registered.\");\r\n        return users[_userAddress];\r\n    }\r\n\r\n    function addItem(string memory name, string memory imageUrl, uint minBid, uint buyoutPrice, uint biddingTime) public {\r\n        uint auctionEndTime = block.timestamp + biddingTime;\r\n        items.push(Item({\r\n            id: items.length,\r\n            seller: payable(msg.sender),\r\n            name: name,\r\n            imageUrl: imageUrl,\r\n            minBid: minBid,\r\n            buyoutPrice: buyoutPrice,\r\n            auctionEndTime: auctionEndTime,\r\n            highestBidder: address(0),\r\n            highestBid: 0,\r\n            ended: false\r\n        }));\r\n        emit AuctionCreated(items.length - 1, name, minBid, buyoutPrice, auctionEndTime);\r\n    }\r\n\r\n    function bid(uint itemId) public payable {\r\n        require(itemId < items.length, \"Invalid Item ID\");\r\n        Item storage item = items[itemId];\r\n        require(!item.ended, \"Auction already ended\");\r\n        require(block.timestamp <= item.auctionEndTime, \"Auction already ended\");\r\n        require(item.seller != msg.sender, \"You cannot bid on your own auction\");\r\n        require(msg.value >= item.minBid, \"Bid must be greater than or equal to minimum bid\");\r\n        require(msg.value > item.highestBid, \"There already is a higher bid\");\r\n        require(msg.value < item.buyoutPrice, \"Bid cannot be higher than buyout\");\r\n\r\n        // Refund the previous highest bidder automatically\r\n        if (item.highestBidder != address(0)) {\r\n            (bool success, ) = item.highestBidder.call{value: item.highestBid}(\"\");\r\n            require(success, \"Refund to previous highest bidder failed\");\r\n        }\r\n\r\n        // Update the highest bidder and highest bid\r\n        item.highestBidder = payable(msg.sender);\r\n        item.highestBid = msg.value;\r\n\r\n        emit HighestBidIncreased(itemId, msg.sender, msg.value);\r\n    }\r\n\r\n    function buyout(uint itemId) public payable {\r\n        require(itemId < items.length, \"Invalid Item ID\");\r\n        Item storage item = items[itemId];\r\n        require(!items[itemId].ended, \"Auction already ended.\");\r\n        require(msg.value == item.buyoutPrice, \"Buyout price not met.\");\r\n\r\n        item.ended = true;\r\n\r\n        if (item.highestBidder != address(0)) {\r\n            (bool success, ) = item.highestBidder.call{value: item.highestBid}(\"\");\r\n            require(success, \"Refund to previous highest bidder failed\");\r\n        }\r\n\r\n        item.seller.transfer(msg.value);\r\n        \r\n        emit ItemBoughtOut(itemId, msg.sender, msg.value);\r\n    }\r\n\r\n    function endAuction(uint itemId) internal {\r\n        Item storage item = items[itemId];\r\n        require(!item.ended, \"Auction end has already been called\");\r\n        require(block.timestamp >= item.auctionEndTime, \"Auction not yet ended\");\r\n\r\n        item.ended = true;\r\n\r\n        // Transfer the highest bid amount to the seller\r\n        item.seller.transfer(item.highestBid);\r\n\r\n        emit AuctionEnded(itemId, item.highestBidder, item.highestBid);\r\n    }\r\n\r\n    function manualEndAuction(uint itemId) public {\r\n        require(itemId < items.length, \"Invalid Item ID\");\r\n        Item storage item = items[itemId];\r\n        require(msg.sender == item.seller, \"Only the seller can end this auction\");\r\n        require(!item.ended, \"Auction already ended\");\r\n\r\n        endAuction(itemId);\r\n    }\r\n\r\n    function itemsCount() public view returns (uint) {\r\n        return items.length;\r\n    }\r\n\r\n    // Retrieve all user items\r\n    function getAllUserItems() public view returns (Item[] memory) {\r\n        require(registered[msg.sender], \"User not registered.\");\r\n\r\n        // Count the user's items\r\n        uint count = 0;\r\n        for (uint index = 0; index < items.length; index++) {\r\n            if (items[index].seller == msg.sender) {\r\n                count++;\r\n            }\r\n        }\r\n\r\n        // Allocate a memory array for the user's items\r\n        Item[] memory list = new Item[](count);\r\n\r\n        uint counter = 0;\r\n        for (uint index = 0; index < items.length; index++) {\r\n            if (items[index].seller == msg.sender) {\r\n                list[counter] = items[index];\r\n                counter++;\r\n            }\r\n        }\r\n\r\n        return list;\r\n    }\r\n}",
  "sourcePath": "E:\\AgriCrop-Connected-Hub\\backend\\contracts\\DecentralizedAuction.sol",
  "compiler": {
    "name": "solc",
    "version": "0.8.21+commit.d9974bed.Emscripten.clang"
  },
  "schemaVersion": "3.4.16",
  "updatedAt": "2025-02-03T16:32:05.356Z",
  "networkType": "ethereum",
  "devdoc": {
    "kind": "dev",
    "methods": {},
    "version": 1
  },
  "userdoc": {
    "kind": "user",
    "methods": {},
    "version": 1
  }
}